:100000000C94CF010C9400020C9400020C9400029A
:100010000C9400020C9400020C9400020C94000258
:100020000C9400020C9400020C9400020C94000248
:100030000C9400020C9400020C9400020C94000238
:100040000C9400020C9400020C9400020C94000228
:100050000C9400020C9400020C9400020C94C50B4A
:100060000C9400020C94390C0C940F0C0C940002AC
:100070000C9400020C9400020C9400020C940002F8
:100080000C9400020C9400020C9400020C940002E8
:100090000C9400020C9400020C9400020C946F0C5F
:1000A0000C9400020C9400020C9400020C940002C8
:1000B0000C9400020C9400020C9400020C940002B8
:1000C0000C9400020C9400020C9400020C940002A8
:1000D0000C9400020C9400020C9400020C94000298
:1000E0000C94000207634236B79BD8A71A396856AA
:1000F00018AEBAAB558C1D3CB7CC5763BD6DEDFD4A
:10010000753EF6177231BF000000803F05A84CCD48
:10011000B2D44EB93836A9020C50B9918688083C41
:10012000A6AAAA2ABE000000803F0C94A3070C9444
:100130005D040C94EC020C9467040C94EE030C9494
:100140004F050C9402040C94B1020C94E9030C9436
:10015000D6020C94F1020C94401A0C943A040C94BC
:10016000D0020C9449040C9422050C94DD0D0C94DF
:100170005E050C94271B0C94B8050C94F8030C94A2
:100180004F1A0C94DD030C94381A0C941C040C9434
:10019000C6020C94581A0C9429080C9426040C944A
:1001A000DE020C9430040C94B7020C940F020C94F1
:1001B000F6020C94491A0C94E8020C940E020C946A
:1001C000C6070C9480050C94461A0C94521A0C9491
:1001D00053040C940C040C94DA020C94A4070C94B1
:1001E0003D1A0C94551A0C94F2020C9414040C94BD
:1001F0005B1A0C9472050C9471040C94B3070C9464
:100200007B040C94E4020C944C1A0C9405060C9498
:10021000CD070C94431A0C94C3020C94BF020C94A7
:10022000CC020C94FA070C94BB02000020002300BF
:10023000260029002C002F003200000100000301DD
:10024000060109015BD1C63D336DFFBDAAD4ECBDEB
:10025000FB76B2BD2D78A1BEADFA1C3E25400D3D0A
:100260003623A3BDA852133E591737BE3447963DD7
:10027000E37006BEA7EA9E3DA7B3333EBB7D563D65
:100280003DD5E13DB1DD9D3D4E2503BD87C1FC3C23
:100290001170A8BD00002100240027002A002D00B5
:1002A0003000330001010000040107010A010000D1
:1002B0002200250028002B002E003100340002010E
:1002C0000000050108010B010505050507050808E3
:1002D0000808020202020A0A0808040404040101D0
:1002E00001010101010103030303030303030407E5
:1002F00007070C0C0C0C0C0C0C0C0202020206067C
:100300000606060606060B0B0B0B0B0B0B0B01026E
:100310001020200808102040102040800201020117
:1003200008040201010204081020408080402010CF
:100330000804020180040201804020100804020128
:100340000804020101020408102040800102040890
:100350001020408000000A0B02090C0D0E08070354
:100360000401000000000000000000000000000088
:10037000000000000000000000000000000000007D
:10038000121110000000000000000000000000003A
:1003900000000000000000000000DD0D271B1124FC
:1003A0001FBECFEFD1E2DEBFCDBF00E00CBF15E036
:1003B000A0E0B2E0E6E0F4E400E00BBF02C007908A
:1003C0000D92A83AB107D9F72DE0A8EAB5E001C02F
:1003D0001D92A43BB207E1F711E0CEECD1E000E0C2
:1003E00006C021970109802FFE010E94621DCD3CAD
:1003F000D10780E00807A9F70E9498100C94F1211A
:100400000C94000090EE980F913430F4E82FF0E057
:10041000E35CFB4F8081089580E00895089508957E
:10042000A5E7BDE0D096EC91D0979F968C919F97D1
:10043000E82724E0E29FC00111249196EC91919766
:1004400090969C919097E927EE0FE82B52968C910D
:10045000529751969C918927E82B0E2E000CFF0B8A
:10046000EB58F24F868108954F925F926F927F9280
:100470008F929F92AF92BF92CF92DF92EF92FF92B4
:100480002B013C014092D50C5092D60C6092D70CB7
:100490007092D80CC090DD0CD090DE0CE090DF0C98
:1004A000F090E00CA70196016091D90C7091DA0CE4
:1004B0008091DB0C9091DC0C0E947C1D4B015C0157
:1004C000AC019B01C301B2010E94361F181644F40F
:1004D0008092D50C9092D60CA092D70CB092D80CEA
:1004E0002091D50C3091D60C4091D70C5091D80C5E
:1004F000C701B6010E94361F181644F4C092D50CED
:10050000D092D60CE092D70CF092D80CFF90EF90DE
:10051000DF90CF90BF90AF909F908F907F906F9023
:100520005F904F9008958150823108F05AC0E82FB3
:10053000F0E08827E156FD4F8F4F0C94621DBF02FB
:10054000C302B102B702BB02F102C602CC02D00262
:10055000D602DA02DE02E402E802F102EC02F20262
:10056000F602809180008F778093800008958091BB
:1005700080008F7DF9CF80918000877FF5CF84B593
:100580008F7784BD089584B58F7DFBCF8091B000B7
:100590008F778093B00008958091B0008F7DF9CF60
:1005A000809190008F7780939000089580919000C3
:1005B0008F7DF9CF80919000877FF5CF8091A0004B
:1005C0008F778093A00008958091A0008F7DF9CF50
:1005D0008091A000877FF5CF809120018F77809355
:1005E00020010895809120018F7DF9CF8091200115
:1005F000877FF5CF1F93CF93DF93282F30E0F9014A
:10060000EC5AFC4F8491F901E25FFC4FD491F9015F
:10061000E853FD4FC491CC23A9F0162F81110E94FD
:100620009302EC2FF0E0EE0FFF1FE255FD4FA59176
:10063000B4918FB7F894EC91111108C0D095DE23D6
:10064000DC938FBFDF91CF911F910895DE2BF8CF00
:10065000CF93DF9390E0FC01E25FFC4F249188533D
:100660009D4FFC0184918823D1F090E0880F991F61
:10067000FC01EC56FD4FA591B491FC01E255FD4FF4
:10068000C591D491623071F49FB7F8943C91822F58
:10069000809583238C93E8812E2B28839FBFDF9145
:1006A000CF9108958FB7F894EC912E2B2C938FBF98
:1006B000F6CFCF92DF92EF92FF921F93CF93DF930B
:1006C0006B017C0120E030E0A9010E94DB1B87FD6B
:1006D00049C020E030E040EA50E4C701B6010E9482
:1006E000361F181634F4C12CD12C80EAE82E80E491
:1006F000F82E2091D90C3091DA0C4091DB0C5091FE
:10070000DC0CC701B6010E94EE1D20E030E04FE78F
:1007100053E40E94411C0E949A1E6F3F710581059F
:10072000910529F024F06FEF70E080E090E06B011C
:100730007C01F7FE03C0C12CD12C7601E60110919B
:10074000D40C61E0812F0E942803209779F460E0A7
:10075000812FDF91CF911F91FF90EF90DF90CF908D
:100760000C94FA02C12CD12C7601C3CFCF3FD10516
:1007700011F461E0EDCFE12FF0E0EC5AFC4FE49191
:10078000E150E23108F0B7C0F0E08827E553FC4FB4
:100790008F4F0C94621DDD03E903EE03F80302049E
:1007A0007B040C0414041C04260430043A04490499
:1007B00053047B045D046704710484B5806884BDC0
:1007C000C7BCDF91CF911F91FF90EF90DF90CF904A
:1007D000089584B5806284BDC8BCF3CF8091800049
:1007E000806880938000D0928900C0928800E9CF11
:1007F00080918000806280938000D0928B00C092B4
:100800008A00DFCF80918000886080938000D09242
:100810008D00C0928C00D5CF8091B000806880930D
:10082000B000C092B300CDCF8091B00080628093C1
:10083000B000C092B400C5CF8091900080688093D2
:100840009000D0929900C0929800BBCF8091900008
:10085000806280939000D0929B00C0929A00B1CFAA
:1008600080919000886080939000D0929D00C0920B
:100870009C00A7CF8091A00080688093A000809109
:10088000A0008F7B8093A000D092A900C092A80006
:1008900098CF8091A00080628093A000D092AB009E
:1008A000C092AA008ECF8091A00088608093A000A3
:1008B000D092AD00C092AC0084CF809120018068BE
:1008C00080932001D0922901C09228017ACF809193
:1008D0002001806280932001D0922B01C0922A01D6
:1008E00070CF80912001886080932001D0922D01EB
:1008F000C0922C0166CFC038D1050CF03ACF27CF7B
:100900003FB7F8948091110690911206A0911306BA
:10091000B091140626B5A89B05C02F3F19F001968B
:10092000A11DB11D3FBFBA2FA92F982F8827BC0149
:10093000CD01620F711D811D911D42E0660F771F71
:10094000881F991F4A95D1F708958F929F92AF9271
:10095000BF92CF92DF92EF92FF924B015C010E9417
:1009600080046B017C010E9480046C197D098E0952
:100970009F09683E734081059105A8F321E0821A22
:100980009108A108B10888EEC80E83E0D81EE11CCA
:10099000F11C81149104A104B10429F7FF90EF9098
:1009A000DF90CF90BF90AF909F908F9008952FB71A
:1009B000F89460910D0670910E0680910F0690914B
:1009C00010062FBF0895CF9340915A0850915B08AD
:1009D00060915C0870915D084F3F5105610571059C
:1009E0007CF54091560850915708609158087091D5
:1009F000590877FF25C0C82F0E94D70460934F077E
:100A000070935007809351079093520740915A0872
:100A100050915B0860915C0870915D08FA01EC5E92
:100A2000F84FED5BFF4FC0834F5F5F4F6F4F7F4FBE
:100A300040935A0850935B0860935C0870935D087C
:100A4000CF910895AF92BF92CF92DF92EF92FF9233
:100A50000F931F93CF93DF936C017B018B01040FE6
:100A6000151FEB015E01AE18BF08C017D10759F082
:100A70006991D601ED91FC910190F081E02DC601C4
:100A80001995892B79F7C501DF91CF911F910F91AE
:100A9000FF90EF90DF90CF90BF90AF900895FC0152
:100AA000538D448D252F30E0842F90E0821B930BD3
:100AB000541710F0CF96089501970895FC01918D79
:100AC000828D981761F0A28DAE0FBF2FB11D5D967C
:100AD0008C91928D9F5F9F73928F90E008958FEF1E
:100AE0009FEF0895FC01918D828D981731F0828DD2
:100AF000E80FF11D858D90E008958FEF9FEF089529
:100B0000FC01918D228D892F90E0805C9F4F821B8C
:100B100091098F73992708958BE696E00E948005CE
:100B200021E0892B09F420E0822F0895FC01A48D97
:100B3000A80FB92FB11DA35ABF4F2C91848D90E0FF
:100B400001968F739927848FA689B7892C93A089E2
:100B5000B1898C91837080648C93938D848D98136C
:100B600006C00288F389E02D80818F7D80830895FF
:100B7000EF92FF920F931F93CF93DF93EC0181E0ED
:100B8000888F9B8D8C8D98131AC0E889F989808194
:100B900085FF15C09FB7F894EE89FF896083E889C7
:100BA000F98980818370806480839FBF81E090E0B9
:100BB000DF91CF911F910F91FF90EF900895F62E46
:100BC0000B8D10E00F5F1F4F0F731127E02E8C8DE0
:100BD0008E110CC00FB607FCFACFE889F989808125
:100BE00085FFF5CFCE010E949605F1CFEB8DEC0F7E
:100BF000FD2FF11DE35AFF4FF0829FB7F8940B8F42
:100C0000EA89FB8980818062CFCFCF93DF93EC01AB
:100C1000888D8823B9F0AA89BB89E889F9898C91E4
:100C200085FD03C0808186FD0DC00FB607FCF7CFA0
:100C30008C9185FFF2CF808185FFEDCFCE010E94A0
:100C40009605E9CFDF91CF91089580E090E0892B60
:100C500029F00E948C0581110E94000080E090E044
:100C6000892B49F080E090E0892B29F00E94000058
:100C700081110E94000080E090E0892B49F080E023
:100C800090E0892B29F00E94000081110E94000051
:100C900080E090E0892B49F080E090E0892B29F0FA
:100CA0000E94000081110C94000008952091E90534
:100CB000260F3327331F21323105ECF420914106F2
:100CC000FC0190E080E0243069F082E00895A0917A
:100CD000E9052191AC0147535A4FA40FB52FB11D1F
:100CE0002C930196861798F38091E905680F60931D
:100CF000E90580E0089581E008951092410681E0C1
:100D00008093400610921B0661E084E10E94FA0283
:100D100061E085E10E94FA02E9EBF0E080818E7FDC
:100D2000808380818D7F808388E48093B80085E410
:100D30008093BC000895CF93DF9391E09093C80512
:100D40008823B9F0C091B800D091BA008091BC005E
:100D50008A7B8093BC0060E084E10E94FA0260E03C
:100D600085E10E94FA020E947D06D093BA00C093EA
:100D7000B800DF91CF910895CF92DF92EF92FF926A
:100D80000F931F93CF93DF93D0916A0681E0D13206
:100D900008F09CC0C09169060E9480046B017C0130
:100DA0008091410681116CC082E08093410681E010
:100DB000809340068FEF80933F0610923E06D093BB
:100DC0003D06A9E4B6E0EDE1F6E080E0D8138DC081
:100DD00010921C0680911C06CC0FC82BC0931C06D9
:100DE00080911B06813009F084C010921B060E947E
:100DF00080046B017C0180911C068093BB00809174
:100E0000430690914406A0914506B0914606892B71
:100E10008A2B8B2BA1F00E94800400914306109135
:100E2000440620914506309146066C197D098E09CD
:100E30009F09061717072807390708F442C0809151
:100E4000BC0083FDD8CF85EC8093BC000E94800459
:100E50006B017C0180914106823009F44CC0809185
:100E60003F068F3F09F469C080913F06803209F444
:100E700066C080913F06803309F463C084E026C0D9
:100E80008091430690914406A0914506B091460694
:100E9000892B8A2B8B2B09F483CF0E94800400912D
:100EA00043061091440620914506309146066C1980
:100EB0007D098E099F09061717072807390708F0CB
:100EC0006FCF809142060E949B0685E010924806F3
:100ED00010926A0610924706DF91CF911F910F91F1
:100EE000FF90EF90DF90CF9008959D9191938F5F49
:100EF0006DCF85EEA9CF8091430690914406A091D5
:100F00004506B0914606892B8A2B8B2B09F4A2CF7C
:100F10000E948004009143061091440620914506EA
:100F2000309146066C197D098E099F09061717072F
:100F30002807390708F08ECFC4CF80E0C7CF82E002
:100F4000C5CF83E0C3CF0895E0911A0680911906BA
:100F5000E81730F4F0E0E855FA4F808190E008950A
:100F60008FEF9FEF089590911A06809119062FEF49
:100F70003FEF981748F4E92FF0E0E855FA4F208149
:100F800030E09F5F90931A06C90108958091190679
:100F900090911A06891B990B0895CF92DF92EF92D8
:100FA000FF920F931F93CF93DF937C01CB018A01B4
:100FB00020914706222389F0EB016B01C40ED51E58
:100FC000CC15DD0569F06991D701ED91FC91019097
:100FD000F081E02DC7011995F3CF642F0E945606CA
:100FE000C801DF91CF911F910F91FF90EF90DF909B
:100FF000CF900895CF93DF931F92CDB7DEB769836B
:10100000209147062223F9F020916A06203258F0F9
:1010100021E030E0FC013383228390E080E00F90F8
:10102000DF91CF91089580914806E82FF0E0E75BCB
:10103000F94F998190838F5F8093480680936A0669
:1010400081E090E0ECCF61E0CE0101960E9456066F
:10105000F7CF90E080E00895FC018381882311F0B0
:1010600085810895868108950F931F93CF93DF9311
:10107000EC01288130E0F901EC5AFC4F8491F90130
:10108000E25FFC4F0491F901E853FD4F14911123E5
:1010900009F43CC081110E949302E12FF0E0EE0FB1
:1010A000FF1FE65DFD4FA591B491EC918A810E235F
:1010B00069F19981891710F48F5F8A831E821D82DE
:1010C0008A819981891327C09C81911102C091E086
:1010D0009E8391E09C83811103C081E08D831C82FB
:1010E000CE010E942C08882361F00E94D7048B0156
:1010F0009C016F83188789873A871B861C861D860B
:101100001E86DF91CF911F910F9108958A818823C8
:10111000A9F28150D2CF8111E3CF8C818823F9F2DB
:10112000DCCFFC01A081B181828191E090934706E0
:10113000809369061092480610926A06ED91FC9120
:1011400011970190F081E02DCD0119950C94BC060A
:101150006F927F928F929F92AF92BF92CF92DF92C7
:10116000EF92FF920F931F93CF93DF9300D000D0A5
:101170001F921F92CDB7DEB73C01862FF42E122F9F
:101180000E94020289838F2D0E9402028A83812F8E
:101190000E9402028B83802F0E9402028C838E2D7C
:1011A0000E9402028D838C2D0E9402028E838A2D62
:1011B0000E9402028F83882D0E94020288875301B9
:1011C000CE0101967C0107E010E0CA8CD12C882466
:1011D0008394C601002E02C0959587950A94E2F784
:1011E00080FF04C0D7018C9180688C93F7019080B8
:1011F000D50113968C911397891549F113969C92FA
:10120000F3018389882319F1808191812281809261
:101210004706209369061092480610926A06602FCE
:101220006195660F625FDC01ED91FC910190F081A8
:10123000E02D1995F30180819181DC01ED91FC9104
:101240000190F081E02D692D19950E94BC06015096
:101250001109BFEFAB1ABB0AEFEFEE1AFE0A0F3F00
:10126000100709F0B6CF28960FB6F894DEBF0FBE70
:10127000CDBFDF91CF911F910F91FF90EF90DF9045
:10128000CF90BF90AF909F908F907F906F90089578
:101290002F923F924F925F926F927F928F929F9286
:1012A000AF92BF92CF92DF92EF92FF920F931F9374
:1012B000CF93DF93EC011B8A88E097E099838883C2
:1012C00070E0759567956A8310921A061092190658
:1012D0000E947D068EE092E0909318068093170698
:1012E0008FE092E090931606809315060E94D70433
:1012F0001B012C01612C712C43018A8191E0909398
:101300004706809369061092480610926A060E946A
:10131000BC06811153C0E1E0EB8B6C85CE010E94CD
:1013200091088B89882321F061E0CE010E94910809
:101330008B89882321F06E85CE010E9491088B89CC
:10134000882321F06EEECE010E9491088FEF8F93DB
:1013500088E3882E98E3A92E28E3C22E38E3E32EF3
:1013600008E328E348E368E3CE010E94A8081F923F
:1013700040E2842E50E2A52E60E2C62E70E2E72EF7
:1013800000E220E240E260E2CE010E94A8080F9055
:101390000F9090E080E0DF91CF911F910F91FF902F
:1013A000EF90DF90CF90BF90AF909F908F907F9005
:1013B0006F905F904F903F902F9008950E94D704B8
:1013C0009B01AC0160E070E080E090E051016201BF
:1013D000730184010E946A1D28383341410551057B
:1013E000610571058105910509F038F464EF71E03C
:1013F00080E090E00E94A50480CF8FEF9FEFCBCFDD
:10140000FC01618380810C94FA021F93CF93DF93D8
:10141000EC01862F142F6F8761E00E94280360E0A3
:10142000CE010F960E94000A188381E089831A82F8
:101430008B8362E0812FDF91CF911F910C94280361
:10144000CF93DF93EC0180918509909186098C23DD
:101450009D2361E0892B09F460E080EB98E00E9415
:10146000000A80918709909188098C239D2361E06F
:10147000892B09F460E081EC98E00E94000A8091D9
:10148000890990918A098C239D2361E0892B09F4B5
:1014900060E082ED98E00E94000A80918B099091B3
:1014A0008C098C239D2361E0892B09F460E083EE95
:1014B00098E00E94000A80918D0990918E098C23FA
:1014C0009D2361E0892B09F460E084EF98E00E949D
:1014D000000A80918F09909190098C239D2361E0EF
:1014E000892B09F460E085E099E00E94000A809170
:1014F0009109909192098C239D2361E0892B09F435
:1015000060E086E199E00E94000A80919309909141
:1015100094098C239D2361E0892B09F460E087E224
:1015200099E00E94000A80919509909196098C2378
:101530009D2361E0892B09F460E088E399E00E9433
:10154000000A80919709909198098C239D2361E06E
:10155000892B09F460E089E499E00E94000A8091F7
:10156000990990919A098C239D2361E0892B09F4B4
:1015700060E08AE599E00E94000A80919B099091C1
:101580009C098C239D2361E0892B09F460E08BE6A4
:1015900099E00E94000AD0939B08C0939A08DF91BB
:1015A000CF910895CF93DF93EC010E94D70420914F
:1015B0009D0830919E0840919F085091A0080E947C
:1015C000311DCA01B90128E130E040E050E00E943D
:1015D000311D660F771FC60FD71F88819981DF9154
:1015E000CF910C94200ACF93C82F61E0813009F08D
:1015F00060E083E297E00E94000A61E0C23009F0F7
:1016000060E084E397E00E94000A61E0C33009F0E3
:1016100060E085E497E0CF910C94000ACF92DF92CE
:10162000EF92FF920F931F93CF93DF93D0E0C0E030
:1016300001E010E0C0909D08D0909E08E0909F08C7
:10164000F090A008C114D104E104F10419F58091CF
:101650009A0890919B0898010C2E02C0220F331F0C
:101660000A94E2F78227932790939B0880939A0825
:101670002196CC30D105F1F680919A0890919B0883
:10168000DF91CF911F910F91FF90EF90DF90CF905E
:101690000C94200A0E94831BA70196010E94FF1C44
:1016A000672B682B692B21F7D2CFFC01019000201A
:1016B000E9F73197AF01481B590BBC018BE696E067
:1016C0000C942205CF93DF930E94550BEC0181EC23
:1016D00094E00E94550B8C0F9D1FDF91CF910895D0
:1016E000CF93DF93FC0144815581608171818BE64A
:1016F00096E00E942205EC0181EC94E00E94550BDB
:101700008C0F9D1FDF91CF910895FC018081918105
:10171000009711F00C947720089585ED8093BC001C
:101720008091430690914406A0914506B0914606EB
:101730000796A11DB11D23E0B695A79597958795AE
:101740002A95D1F72091BC0024FD03C010924106D8
:10175000089540914306509144066091450670916A
:101760004606452B462B472B69F30097A105B1058B
:1017700041F02AE22A95F1F700C00197A109B109C9
:10178000E1CF809142060C949B061F920F920FB6F8
:101790000F9211242F933F938F939F93AF93BF93F7
:1017A00080910D0690910E06A0910F06B091100643
:1017B00030910C0623E0230F2D3758F50196A11D1B
:1017C000B11D20930C0680930D0690930E06A093F6
:1017D0000F06B09310068091110690911206A09109
:1017E0001306B09114060196A11DB11D8093110638
:1017F00090931206A0931306B0931406BF91AF9175
:101800009F918F913F912F910F900FBE0F901F903E
:10181000189526E8230F0296A11DB11DD2CF1F9265
:101820000F920FB60F9211240BB60F922F933F9386
:101830004F935F936F937F938F939F93AF93BF93D8
:10184000EF93FF938BE696E00E949605FF91EF9150
:10185000BF91AF919F918F917F916F915F914F91C8
:101860003F912F910F900BBE0F900FBE0F901F90C6
:1018700018951F920F920FB60F9211240BB60F926C
:101880002F938F939F93EF93FF93E0917B06F091BB
:101890007C068081E0918106F091820682FD1DC068
:1018A0009081809184068F5F8F73209185068217C7
:1018B00041F0E0918406F0E0E559F94F958F80936F
:1018C0008406FF91EF919F918F912F910F900BBE06
:1018D0000F900FBE0F901F9018958081F2CF1F922E
:1018E0000F920FB60F9211240BB60F922F933F93C6
:1018F0004F935F936F937F938F939F93AF93BF9318
:10190000EF93FF938091B900887F803609F44DC032
:1019100008F040C0883209F4A9C028F5803109F4E4
:101920009DC0C8F4882309F4FBC0883009F496C030
:10193000FF91EF91BF91AF919F918F917F916F91A7
:101940005F914F913F912F910F900BBE0F900FBE63
:101950000F901F901895883109F488C0803241F7A4
:1019600080933F0614C0803409F49DC040F4803356
:10197000B9F38833E9F680933F0685ECB0C0803533
:1019800009F485C0883509F496C0883489F60E9428
:101990008D0BCECF883909F48CC038F5883729F003
:1019A00050F4883611F0803719F683E080934106B1
:1019B00010920B0657C0883809F47BC0803919F0A3
:1019C000803809F0B5CF80910B06803208F071C0E5
:1019D000E0910B0681E08E0F80930B068091BB0097
:1019E000F0E0E551FA4F80833DC0803B39F0E0F4F0
:1019F000803A09F479C0883A09F09ACF84E080935C
:101A000041061092EA051092E905E0911706F0915F
:101A1000180619958091E90581110FC081E0809326
:101A2000E9051092C90509C0803C09F4A6CF883C9D
:101A300009F4A3CF883B09F07BCFE091EA0581E070
:101A40008E0F8093EA05F0E0E753FA4F8081809390
:101A5000BB009091EA058091E90529C080911C06A0
:101A60008093BB0085EC8093BC0062CF90913E06D2
:101A700080913D06981758F5E0913E0681E08E0F63
:101A800080933E06F0E0E35EF94F8081E9CFE0917C
:101A90003E0681E08E0F80933E068091BB00F0E011
:101AA000E35EF94F808390913E0680913D06981742
:101AB000C8F285E8D8CFE0913E0681E08E0F809392
:101AC0003E068091BB00F0E0E35EF94F8083809199
:101AD000400681115CCF81E080931B0684EA8093ED
:101AE000BC001092410624CF85EC8093BC0010927C
:101AF000410680910B06803230F4E0910B06F0E055
:101B0000E551FA4F108260910B0670E0E0911506E6
:101B1000F09116068BEE95E0199510920B0608CF02
:101B200010923F0634CFEF92FF920F931F93CF9303
:101B3000DF93EC017B01FB0101900020E9F7319775
:101B40008F01061B170B88819981009729F02A8144
:101B50003B812017310788F4B8016F5F7F4F0E94E7
:101B600000210097B9F0998388831B830A832C8115
:101B70003D81232B11F4FC0110821D830C83B701DE
:101B800088819981DF91CF911F910F91FF90EF9004
:101B90000C94EA2188819981009711F00E947720A6
:101BA000198218821D821C821B821A82DF91CF91BA
:101BB0001F910F91FF90EF9008954F925F926F9257
:101BC0007F928F929F92AF92BF92CF92DF92EF92CD
:101BD000FF92CF93DF93EBE6F6E01382128288EE5A
:101BE000C82E83E0D82EE12CF12CC482D582E68267
:101BF000F78281EA94E09183808385EC90E0958779
:101C0000848784EC90E09787868780EC90E0918BC6
:101C1000808B81EC90E0938B828B82EC90E0958BB3
:101C2000848B86EC90E0978B868B118E128E138EB0
:101C3000148EE8E0F7E013821282C482D582E68235
:101C4000F78283EB94E091838083E5E7FDE01182E6
:101C50001082138212821582148264EC74E0CF0128
:101C60000E94930D88E0EAE0F2E0ABE7BDE001906E
:101C70000D928A95E1F7C4EDDCE080E090E0A0EA07
:101C8000B0E48D839E83AF83B88780E090E0A0E8C6
:101C9000BFE389879A87AB87BC878CEA95ECA7E27C
:101CA000B7E38D879E87AF87B88B198A1A8A1B8AFC
:101CB0001C8A1D8A1E8A1F8A188E98EB892E9BE02B
:101CC000992EA12CB12C898E9A8EAB8EBC8E80E081
:101CD00090E0A0E0BFE38D8F9E8FAF8FB8A380E030
:101CE00090E0A0ECB0E489A39AA3ABA3BCA30E94AC
:101CF000831B2FEF3FEF4FEF5FE70E94FF1C0E9417
:101D0000E21B20E030E040E050E30E94411C68A765
:101D100079A78AA79BA787E197EBA1EDB8E38CA7EA
:101D20009DA7AEA7BFA786EA9BE9A4ECBBE388AB5F
:101D300099ABAAABBBAB78E0EDE9FCE0DF01872F04
:101D40001D928A95E9F7EAE9FCE060E2638751E2D7
:101D5000548740E8458781E8868737E8378725E854
:101D6000208B93E8918B828B138AA8E54A2EA8E9F1
:101D70005A2E612C712C45A256A267A270A6C1A64C
:101D8000D2A6E3A6F4A6B0E64B2EBAEE5B2E612CEB
:101D9000712C45A656A667A670AAC1AAD2AAE3AA24
:101DA000F4AA15AA16AA17AA10AE11AEE8E6FCE02E
:101DB000DF011D927A95E9F7C3E4DCE06DA75EA729
:101DC0004FA788AB39AB2AAB9BAB8CAB1DAA1EAA25
:101DD0001FAA19AE18AE1BAE1AAE1DAE1CAE6CEC2F
:101DE00074E08BE79CE00E94930D1FAE1EAE109234
:101DF000840C1092830C1092860C1092850C67ED67
:101E000074E081E89CE00E94930D1092880C10927F
:101E1000870C10928A0C1092890C10928C0C1092E4
:101E20008B0C62EE74E087E89CE00E94930D84EFD7
:101E300091E0A0E0B0E080938D0C90938E0CA09385
:101E40008F0CB093900C1092910C1092920C1092F7
:101E5000930C1092940C1092950C8EE390E0A0E0FD
:101E6000B0E08093960C9093970CA093980CB0934D
:101E7000990C10923B0C10923C0C10923D0C10925D
:101E80003E0C84E690E0A0E0B0E080933F0C90939D
:101E9000400CA093410CB093420CEAE9F8E01182A7
:101EA0001082128280E092E0A0E0B0E0838394830D
:101EB000A583B6838BE090E090936E0980936D09C3
:101EC0008AE090E09093700980936F0989E090E038
:101ED000909372098093710968E070E070937409BF
:101EE0006093730987E090E0909376098093750979
:101EF00086E090E0909378098093770985E090E000
:101F000090937A098093790944E050E050937C09DA
:101F100040937B0983E090E090937E0980937D0954
:101F200022E030E03093800920937F0981E090E047
:101F300090938209809381091092840910928309F9
:101F4000E0E0F8E0F0938609E0938509E0E0F4E052
:101F5000F0938809E0938709E0E0F2E0F0938A09C2
:101F6000E0938909E0E0F1E0F0938C09E0938B09BC
:101F7000E0E8F0E0F0938E09E0938D09E0E4F0E012
:101F8000F0939009E0938F09E0E2F0E0F09392097A
:101F9000E0939109E0E1F0E0F0939409E093930974
:101FA0007093960960939509509398094093970907
:101FB00030939A092093990990939C0980939B09E7
:101FC00080E3E2E1F2E0ADE9B9E001900D928A959B
:101FD000E1F780E3E2E4F2E0ADECB9E001900D92CC
:101FE0008A95E1F780E3E2E7F2E0ADEFB9E0019036
:101FF0000D928A95E1F780E3E2EAF2E0ADE2BAE021
:1020000001900D928A95E1F780E3E2EDF2E0ADE513
:10201000BAE001900D928A95E1F780E3E2E0F3E007
:10202000ADE8BAE001900D928A95E1F780E3E2E332
:10203000F3E0ADEBBAE001900D928A95E1F780E311
:10204000E2E6F3E0ADEEBAE001900D928A95E1F799
:1020500080E3E2E9F3E0ADE1BBE001900D928A9507
:10206000E1F780E3E2ECF3E0ADE4BBE001900D9238
:102070008A95E1F780E3E2EFF3E0ADE7BBE00190A2
:102080000D928A95E1F780E3E2E2F4E0ADEABBE08D
:1020900001900D928A95E1F7E2E6F8E0C3AAD4AA8E
:1020A000E5AAF6AA81E087ABE4E1F7E083AA94AA67
:1020B000A5AAB6AAC7AAD0AEE1AEF2AE13AE14AED0
:1020C00015AE16AE10925307109254071092550792
:1020D000109256078FEF9FEFDC0180935608909384
:1020E0005708A0935808B093590810925A081092B4
:1020F0005B0810925C0810925D088FEF90E0A0E002
:10210000B0E080935E0890935F08A0936008B0935E
:102110006108DF91CF91FF90EF90DF90CF90BF905B
:10212000AF909F908F907F906F905F904F900895A9
:10213000CF93DF93CDB7DEB7E8970FB6F894DEBF45
:102140000FBECDBF789484B5826084BD84B58160B4
:1021500084BD85B5826085BD85B5816085BD809172
:102160006E00816080936E001092810080918100EA
:1021700082608093810080918100816080938100E2
:10218000809180008160809380008091B1008460A4
:102190008093B1008091B00081608093B000809105
:1021A0009100826080939100809191008160809382
:1021B0009100809190008160809390008091A100B7
:1021C00082608093A1008091A10081608093A10032
:1021D0008091A00081608093A000809121018260A5
:1021E0008093210180912101816080932101809160
:1021F000200181608093200180917A008460809327
:102200007A0080917A00826080937A0080917A00CF
:10221000816080937A0080917A00806880937A0050
:102220001092C100E0917B06F0917C0682E08083F1
:10223000E0917706F09178061082E0917906F091AE
:102240007A0680E1808310928306E0917F06F09108
:10225000800606E00083E0917D06F0917E06808195
:1022600080618083E0917D06F0917E0680818860A8
:102270008083E0917D06F0917E0680818068808376
:10228000E0917D06F0917E0680818F7D808368EEEF
:1022900073E080E090E00E94A5048DE08093D40C70
:1022A00061E00E94280360E070E0CB010E945903C6
:1022B00089E28093080D11E01093090D10920A0D28
:1022C00010920B0D62E00E94280381E38093170DAA
:1022D0001093180D1092190D10921A0D62E00E94C1
:1022E00028030093260D1093270D1092280D1092AD
:1022F000290D62E086E00E9428038AE18093350D73
:102300001093360D1092370D1092380D62E00E9436
:1023100028038CE08093440D1093450D1092460DD8
:102320001092470D62E00E9428034CE264E283E5CC
:102330009DE00E94050A44E363E384E69DE00E9479
:10234000050A60EE8AE99CE00E9448094DE265E3D7
:102350008EEA9CE00E94050A62EE85E69CE00E94FF
:10236000480943E26BE283E49CE00E94050A4BE1EA
:102370006CE184E59CE00E94050A87E38093DD0B15
:102380001093DE0B1092DF0B1093E00B62E00E94C3
:1023900028038FE38093EC0B1093ED0B1092EE0B60
:1023A0001093EF0B62E00E94280388E38093FB0BFD
:1023B0001093FC0B1092FD0B1093FE0B62E00E9439
:1023C000280380E480930A0C10930B0C10920C0CE1
:1023D00010930D0C62E00E94280346E36EE389E14E
:1023E0009CE00E94050A4AE362E48AE29CE00E94C3
:1023F000050A42E068E081EA98E00E94050A45E0AB
:1024000060E382EB98E00E94050A45E46AE083EC11
:1024100098E00E94050A4BE06DE384ED98E00E948D
:10242000050A4FE26EE185EE98E00E94050A46E15A
:1024300060E286EF98E00E94050A49E069E187E0E2
:1024400099E00E94050A41E26EE288E199E00E946B
:10245000050A46E26CE389E299E00E94050A47E139
:102460006FE18AE399E00E94050A48E168E28BE4A3
:1024700099E00E94050A47E26BE38CE599E00E942F
:10248000050A10E000E082E0882E912CA12CB12CEE
:10249000EE24E394F12C0E94831BA50194010E9479
:1024A000FF1C672B682B692B89F480919A08909107
:1024B0009B089701002E02C0220F331F0A94E2F7F7
:1024C0008227932790939B0880939A080F5F1F4F52
:1024D0000C30110501F74AE262E282E698E00E94C0
:1024E000050A42E367E083E798E00E94050A44E4B6
:1024F00063E484E898E00E94050A41E469E384E12A
:1025000097E00E94050A45E26DE185E297E00E94AE
:10251000050A43E064E086E397E00E94050A80E153
:102520008093830D12E3F12EF092840D09E1009364
:10253000850D11E01093860D62E00E94280381E171
:102540008093920DF092930D0093940D1093950D3E
:1025500062E00E94280383E18093A10DF092A20D16
:102560000093A30D1093A40D62E00E942803C09075
:102570005204D0905304E0905404CEAADFAAE8AEEF
:102580000E9480046093E90C7093EA0C8093EB0C3A
:102590009093EC0C8091F90C8823E9F00E94D70409
:1025A000C090E50CD090E60CE090E70CF090E80CC1
:1025B0006C197D098E099F090091ED0C1091EE0CAC
:1025C0002091EF0C3091F00C0617170728073907F8
:1025D00030F41092F90C412C512C32013DC00E9474
:1025E000E01B4B015C01C701B6010E94E01B9B018F
:1025F000AC01C501B4010E94EE1D6B017C0160912C
:10260000F10C7091F20C8091F30C9091F40C9058B5
:10261000A70196010E94411C0E94681E4B015C01AB
:102620002091F50C3091F60C4091F70C5091F80C7C
:10263000C701B6010E94411C2BED3FE049EC50E47C
:102640000E94411C0E94B11F9B01AC01C501B40155
:102650000E94411C2B013C018091FA0C812C912C91
:102660005401882309F492C0C090000DD090010D50
:10267000E090020DF090030D0E94D7040E94E01B31
:10268000A70196010E94411C2091FC0C3091FD0C89
:102690004091FE0C5091FF0C0E947D1D6AA77BA704
:1026A0008CA79DA72CE632E03BA32AA3B4E42B2EF3
:1026B000B2E03B2E0BE010E0812C912C5401EAA1FA
:1026C000FBA1C590D590E590F490CEA6DFA6E8AA30
:1026D000F9AAF101C590D590E590F490CAAADBAAB9
:1026E000ECAAFDAAB80190E080E00E94E01B2BED6F
:1026F0003FE049EC50E40E94411C2AA53BA54CA5B3
:102700005DA50E94411C6B017C010E94B11F6EA35C
:102710007FA388A799A7C701B6010E94E91D6B0195
:102720007C012EA13FA148A559A56EA57FA588A92A
:1027300099A90E94411C6EA37FA388A799A7A7010E
:1027400096016AA97BA98CA99DA90E94411C9B01A5
:10275000AC016EA17FA188A599A50E947D1D9B015A
:10276000AC01C501B4010E947D1D4B015C012AA191
:102770003BA12C5F3F4F3BA32AA334E0230E311C27
:102780000F5F1F4F0531110509F099CF8091FB0CA8
:10279000C12CD12C76018823A1F0C090040DD090DB
:1027A000050DE090060DF090070D0E94D7040E94E1
:1027B000E01BA70196010E94411C0E94B11F6B0102
:1027C0007C01A5019401C301B2010E947D1DA701F6
:1027D00096010E947D1D20E030E040E450E40E941C
:1027E000EE1D2B013C01C090DD0CD090DE0CE09082
:1027F000DF0CF090E00CA70196016091D90C70916C
:10280000DA0C8091DB0C9091DC0C0E947C1D4B015A
:102810005C01AC019B016091D50C7091D60C80914C
:10282000D70C9091D80C0E94361F181644F4809251
:10283000D50C9092D60CA092D70CB092D80C2091C7
:10284000D50C3091D60C4091D70C5091D80CC701C3
:10285000B6010E94361F181644F4C092D50CD092CF
:10286000D60CE092D70CF092D80CA7019601C301C8
:10287000B2010E94411C2091D50C3091D60C4091A0
:10288000D70C5091D80C0E947D1D0E94590388E0FE
:102890009DE00E94340887E19DE00E94340886E2B2
:1028A0009DE00E94340885E39DE00E94340884E4A2
:1028B0009DE00E94340883E59DE00E94340884E690
:1028C0009DE00E94340888E09DE00E942C08811160
:1028D00009C080910B0D882309F49BC180910E0DD6
:1028E000882389F08091F90C81110DC041E040935B
:1028F000F90C0E94D7046093E50C7093E60C80936A
:10290000E70C9093E80C87E19DE00E942C08882357
:1029100051F06091D90C7091DA0C8091DB0C9091A0
:10292000DC0C0E94340280911A0D882309F474C1D2
:1029300080911D0D882329F060E070E0CB010E949A
:10294000340286E29DE00E942C08811109C080912A
:10295000290D882309F463C180912C0D8823C1F0CF
:102960000E94831B24EF31E040E050E00E94FF1CF6
:102970000E94E21B26EA3BE944EC5BE30E94411C17
:1029800020E030E040E85FE30E947D1D0E943402B9
:102990008091390D9091380D89278093FA0C8091A0
:1029A000480D9091470D89278093FB0C9091680DFD
:1029B0008091670D981791F10E9480040091E90CB5
:1029C0001091EA0C2091EB0C3091EC0C601B710B18
:1029D000820B930B0E94E01B2091E10C3091E20CE2
:1029E0004091E30C5091E40C0E94411C9B01AC010E
:1029F0006091D50C7091D60C8091D70C9091D80C29
:102A00000E947C1D0E94340261E083E79DE00E94E9
:102A1000000A60E082E69DE00E94000A9091570D56
:102A20008091560D981781F10E9480040091E90C65
:102A30001091EA0C2091EB0C3091EC0C601B710BA7
:102A4000820B930B0E94E01B2091E10C3091E20C71
:102A50004091E30C5091E40C0E94411C2091D50C54
:102A60003091D60C4091D70C5091D80C0E947D1D0E
:102A70000E94340261E082E69DE00E94000A60E06C
:102A800083E79DE00E94000A8EEA9CE00E943408E1
:102A90008EEA9CE00E942C088823A9F08091CF0C3C
:102AA000811111C051E05093CF0C0E94D704609364
:102AB000D00C7093D10C8093D20C9093D30C80EFF8
:102AC00094E00E94620B8091CF0C882309F4F3C03C
:102AD0000E94D7040091D00C1091D10C2091D20CFF
:102AE0003091D30C6B017C01C01AD10AE20AF30ABF
:102AF000CAA2DBA2ECA2FDA24090BF0C5090C00C79
:102B00006090C10C7090C20CC414D504E604F704A4
:102B100008F088C04C185D086E087F08C301B20138
:102B200024E630E040E050E00E94311DCA01B901C6
:102B30002AE030E040E050E00E94311D70E3A72E13
:102B4000A60EC301B20128EE33E040E050E00E943F
:102B5000311DCA01B9012AE030E040E050E00E9496
:102B6000311DE0E3CE2EC60EC301B20120E137E2F3
:102B700040E050E00E94311DCA01B9012AE030E076
:102B800040E050E00E94311DF0E3EF2EE60E84E0BD
:102B90008F93A0E28A2E00E22DE244E560E28AE90A
:102BA0009CE00E94A8080F902091C30C3091C40CA7
:102BB0004091C50C5091C60C6AA17BA18CA19DA12E
:102BC0000E94311D122F1170612F8DEB9CE00E942D
:102BD000000A8091C70C9091C80CA091C90CB091CB
:102BE000CA0C2AA13BA14CA15DA182179307A4079F
:102BF000B507E0F41092CF0C1F92E0E28E2EF0E2C7
:102C0000AF2EA0E2CA2EB0E2EB2E00E220E240E2BC
:102C10003BC080910D0D64CE80911C0D8BCE8091B8
:102C20002B0D9CCE412C512C3201BECF452846287D
:102C3000472809F040C08091BF0C9091C00CA09132
:102C4000C10CB091C20C4091CB0C5091CC0C609156
:102C5000CD0C7091CE0C840F951FA61FB71FCAA074
:102C6000DBA0ECA0FDA0C816D906EA06FB0670F4AE
:102C70001F9220E2822E38E4A32E43E4C42E5EE4A9
:102C8000E52E05E521E44CE460E210C0112309F4CF
:102C9000B3CF1F9210E2812E06E4A02E86E4C82E48
:102CA0009FE4E92E04E526E449E46CE48AE99CE02B
:102CB0000E94A8080F9083E49CE00E94340884E5F9
:102CC0009CE00E9434088091950C882309F438C256
:102CD0000E94D7040091910C1091920C2091930CBA
:102CE0003091940C601B710B820B930B2091960C0E
:102CF0003091970C4091980C5091990C0E94311D85
:102D000020937A0C213121F41092950C1092790CB9
:102D100088E0E5E5F4E0DE01119601900D928A95D8
:102D2000E1F78091790C90917A0C98170CF40BC212
:102D30001F9240E2842E50E2A52E60E2C62E70E281
:102D4000E72E00E220E240E260E285E69CE00E949D
:102D5000A8080F908091950C81115DC083E49CE0E0
:102D60000E942C08882359F08091790C81508F3073
:102D700030F48093790C8BE79CE00E94700B84E523
:102D80009CE00E942C08882359F08091790C8031B6
:102D90003CF48F5F8093790C81E89CE00E94700B7B
:102DA0008091790C803109F0F6C10E94D7042091FE
:102DB0008D0C30918E0C40918F0C5091900C0E9494
:102DC000311D122F1170612F82E59CE00E94000AD4
:102DD000612F83E69CE00E94000A9091470C80914D
:102DE000460C9817C1F09091580C8091570C981789
:102DF00091F00E94D7046093910C7093920C809391
:102E0000930C9093940CDD24D394D092950C87E886
:102E10009CE00E94700B8DED9BE00E9434088CEECC
:102E20009BE00E9434088BEF9BE00E9434088AE00C
:102E30009CE00E94340889E19CE00E9434088AE208
:102E40009CE00E94340861E089E39CE00E94000A53
:102E500061E088E29CE00E94000A0E94D704009191
:102E60003B0C10913C0C20913D0C30913E0C601BB2
:102E7000710B820B930B00913F0C1091400C209131
:102E8000410C3091420C061717072807390708F044
:102E900068C02EA93FA948AD29833A834B8310917E
:102EA0001D0C80911C0C182780912E0C90912D0CDC
:102EB0008927181B81E095E00E94550B8091E10B5A
:102EC0009091E00B89279091F00B2091EF0B9227C6
:102ED000891BE2E0F0E0EC0FFD1FE80FF11D87FD1C
:102EE000FA9560818BE696E00E94B80584E695E04D
:102EF0000E94550B8091FF0B9091FE0B89279091BA
:102F00000E0C20910D0C9227891BE2E0F0E0EC0FF3
:102F1000FD1FE80FF11D87FDFA9560818BE696E0B5
:102F20000E94B8058CE095E00E94550BE2E0F0E0CD
:102F3000EC0FFD1FE10FF11D17FDFA9560818BE687
:102F400096E00E94B80581EC94E00E94550B0E9427
:102F5000D70460933B0C70933C0C80933D0C909392
:102F60003E0C81EA98E00E94340882EB98E00E94CF
:102F7000340883EC98E00E94340884ED98E00E94C5
:102F8000340885EE98E00E94340886EF98E00E94AD
:102F9000340887E099E00E94340888E199E00E94B3
:102FA000340889E299E00E9434088AE399E00E949B
:102FB00034088BE499E00E9434088CE599E00E9483
:102FC000340881EA98E00E942C08882321F08EE0E2
:102FD00095E00E94620B85EE98E00E942C08882301
:102FE00021F084E295E00E94620B89E299E00E9460
:102FF0002C08882321F08DE295E00E94620B82EB81
:1030000098E00E942C088823D9F080919D08909127
:103010009E08A0919F08B091A008B695A795979596
:1030200087958F3F9105A105B10509F008F4BEC051
:1030300080939D0890939E08A0939F08B093A0084A
:1030400086EF98E00E942C08882351F00E94831B91
:103050002DE030E040E050E00E94FF1C60939C08AF
:103060008AE399E00E942C088823D9F080919D087A
:1030700090919E08A0919F08B091A008880F991F79
:10308000AA1FBB1F8130E8E09E07A105B10508F02B
:1030900092C080939D0890939E08A0939F08B09340
:1030A000A00883EC98E00E942C08882319F087E0A0
:1030B00080939C0887E099E00E942C08882319F0EF
:1030C00084E080939C088BE499E00E942C0888237C
:1030D00019F08AE080939C0884ED98E00E942C0807
:1030E000882319F086E080939C0888E199E00E948B
:1030F0002C08882319F082E080939C088CE599E0E5
:103100000E942C08882319F08BE080939C08E091A2
:103110009C08E150EC3008F05CC0F0E08827EC56E9
:10312000F74E8F4F0C94621D381A3D1A401A431AFD
:10313000461A491A4C1A4F1A521A551A581A5B1A3B
:1031400010927A0CE5CDFE01319640EF480F981BA6
:1031500052E269E220E278E2181614F0208303C0FC
:10316000813079F47083825031964813F5CF1F92E5
:103170008884AF80CE80ED800C812B814A8169816B
:10318000E4CD392F380F32304CF7313011F46083F1
:10319000EACF5083E8CF60E082E59CE00E94000A1D
:1031A00060E083E69CE00E94000A35CE80E091E07A
:1031B000A0E0B0E03DCFC12C98E0D92EE12CF12C5D
:1031C000C0929D08D0929E08E0929F08F092A008BD
:1031D00068CF0E940E0B82E698E00E94340883E7D5
:1031E00098E00E94340884E898E00E94340882E65F
:1031F00098E00E942C08882321F08EE395E00E943D
:10320000620B83E798E00E942C08882321F08EE46B
:1032100095E00E94620B9091770880917608981350
:10322000F7C1DD24D394D0929908AA24AA94BB2490
:10323000BA94CC24CA94DD24DA94EE24EA94FF24D0
:10324000FA940FEF1FEF8091950890919608A09146
:103250009708B09198089C01AD0160E070E080E0B3
:1032600090E00E94731D54F480919908882331F0F6
:1032700086E695E00E94620B1092990860916608BC
:1032800080916508682781E798E00E94000A6091B4
:10329000770880917608682782E898E00E94000A03
:1032A0009091660880916508981308C190917708FD
:1032B00080917608981302C16091880880918708F0
:1032C000682783E998E00E94000A84E197E00E9461
:1032D000340885E297E00E94340886E397E00E9474
:1032E000340884E197E00E942C08882339F08DE7A8
:1032F00095E00E94620B81E00E94E30485E297E082
:103300000E942C08882339F08AE895E00E94620B1D
:1033100082E00E94E30486E397E00E942C08882361
:1033200039F08AE995E00E94620B83E00E94E30491
:103330000E94D70400914F07109150072091510728
:1033400030915207601B710B820B930B0091470762
:10335000109148072091490730914A07061717072F
:1033600028073907E0F48091560890915708A091FA
:103370005808B0915908B7FF12C010925608109221
:10338000570810925808109259080E94D704609369
:103390005307709354078093550790935607809175
:1033A000560890915708A0915808B0915908B7FF56
:1033B00089C080915A0890915B08A0915C08B091F7
:1033C0005D08181619061A061B060CF079C001973D
:1033D000A109B1098C5E984F8D5B9F4FDC018C91E8
:1033E0000E94F30A0E941002182F83E89DE00E94B9
:1033F000340882E99DE00E94340881EA9DE00E9441
:1034000034080E941002181781F14091790D5091F3
:103410007A0D6091750D7091760D8BE696E00E94A5
:1034200022050E941002282F30E050E040E019A24F
:103430008E010F5D1F4FCA01B9012AE030E040E064
:1034400050E00E94311D605DD8016E938D01211501
:1034500031054105510579F7109719F0CD010E940A
:10346000550B81EC94E00E94550B0E94250688C8FC
:103470008DE999E00E94D20AAECE8DEC99E0FACFA8
:103480008DEF99E0F7CF8DE29AE0F4CF8DE59AE0E9
:10349000F1CF8DE89AE0EECF8DEB9AE0EBCF8DEE99
:1034A0009AE0E8CF8DE19BE0E5CF8DE49BE0E2CFB1
:1034B0008DE79BE0DFCF8DEA9BE0DCCF61E001CFC1
:1034C00080E08ECF8C5E984F8D5B9F4FFC0180819A
:1034D0000E94F30A0E94D7040091530710915407E9
:1034E0002091550730915607601B710B820B930B8F
:1034F00000914B0710914C0720914D0730914E07DA
:103500000617170728073907D0F5809156089091BC
:103510005708A0915808B09159080196A11DB11DF6
:103520008093560890935708A0935808B093590871
:103530000E94D704609353077093540780935507F4
:10354000909356078091560890915708A09158087B
:10355000B09159088F3F9105A105B10584F48C5EA7
:10356000984F8D5B9F4FDC018C918230B1F183309D
:10357000B9F1813021F48DE795E00E94620B8091D2
:10358000560890915708A0915808B09159088F3F5C
:103590009105A105B10541F08C5E984F8D5B9F4F61
:1035A000FC01808181111ECF40915E0850915F081F
:1035B000609160087091610880E0082F10E030E0B1
:1035C00020E004171507260737076CF4E82FF0E012
:1035D000E95AF84F10828F5FF0CF8AE895E0CDCF9F
:1035E0008AE995E0CACF10925A0810925B081092AF
:1035F0005C0810925D08CC24CA94DC2C7601C09241
:103600005608D0925708E0925808F0925908EACE2E
:103610000E94D7049B01AC0160E070E080E090E084
:10362000A0907A08B0907B08C0907C08D0907D086C
:10363000E0907E08F0907F0800918008109181084A
:103640000E946A1D59016A017B018C01FCCD87E84B
:103650009CE00E94850B81E89CE00E94850B8BE733
:103660009CE00E94850B85E79DE00C94850B8F9272
:103670009F92AF92BF92CF92DF92EF92FF92CF9341
:10368000DF93EC01688179818A819B8161157105E5
:103690008105910521F464E279ED8BE597E02DE158
:1036A00033EF41E050E00E94FF1C49015A019B01A9
:1036B000AC01A7EAB1E40E941E1D6B017C01ACEED7
:1036C000B4EFA50194010E942C1DC60ED71EE81E62
:1036D000F91EF7FE06C081E0C81AD108E10880E8AB
:1036E000F80AC882D982EA82FB82C701B6019F77B5
:1036F000DF91CF91FF90EF90DF90CF90BF90AF9090
:103700009F908F9008958F929F92AF92BF92CF9289
:10371000DF92EF92FF92609100027091010280911E
:10372000020290910302611571058105910521F452
:1037300064E279ED8BE597E02DE133EF41E050E075
:103740000E94FF1C49015A019B01AC01A7EAB1E4A8
:103750000E941E1D6B017C01ACEEB4EFA50194012B
:103760000E942C1DC60ED71EE81EF91EF7FE06C0CD
:1037700081E0C81AD108E10880E8F80AC092000286
:10378000D0920102E0920202F0920302C701B60158
:103790009F77FF90EF90DF90CF90BF90AF909F907A
:1037A0008F9008956093000270930102809302024B
:1037B0009093030208950E941D1C08F481E008956F
:1037C000E89409C097FB3EF49095809570956195BB
:1037D0007F4F8F4F9F4F9923A9F0F92F96E9BB2771
:1037E0009395F695879577956795B795F111F8CFED
:1037F000FAF4BB0F11F460FF1BC06F5F7F4F8F4F58
:103800009F4F16C0882311F096E911C0772321F04D
:103810009EE8872F762F05C0662371F096E8862FE5
:1038200070E060E02AF09A95660F771F881FDAF73C
:10383000880F9695879597F90895990F0008550F69
:10384000AA0BE0E8FEEF16161706E807F907C0F026
:1038500012161306E407F50798F0621B730B840B2E
:10386000950B39F40A2661F0232B242B252B21F408
:1038700008950A2609F4A140A6958FEF811D811DA8
:1038800008950E94541C0C94C51C0E94B71C38F06B
:103890000E94BE1C20F0952311F00C94AE1C0C94D9
:1038A000B41C11240C94F91C0E94D61C70F3959F33
:1038B000C1F3950F50E0551F629FF001729FBB2727
:1038C000F00DB11D639FAA27F00DB11DAA1F649FC3
:1038D0006627B00DA11D661F829F2227B00DA11D76
:1038E000621F739FB00DA11D621F839FA00D611DFC
:1038F000221F749F3327A00D611D231F849F600D1D
:10390000211D822F762F6A2F11249F5750409AF045
:10391000F1F088234AF0EE0FFF1FBB1F661F771FD1
:10392000881F91505040A9F79E3F510580F00C949C
:10393000AE1C0C94F91C5F3FE4F3983ED4F38695DB
:1039400077956795B795F795E7959F5FC1F7FE2B3C
:10395000880F911D9695879597F9089597F99F6718
:1039600080E870E060E008959FEF80EC0895002407
:103970000A941616170618060906089500240A94D4
:1039800012161306140605060895092E0394000C5A
:1039900011F4882352F0BB0F40F4BF2B11F460FFE9
:1039A00004C06F5F7F4F8F4F9F4F089557FD905812
:1039B000440F551F59F05F3F71F04795880F97FBF3
:1039C000991F61F09F3F79F08795089512161306AD
:1039D0001406551FF2CF4695F1DF08C016161706DC
:1039E0001806991FF1CF8695710561050894089511
:1039F000E894BB2766277727CB0197F90895052E12
:103A000097FB1EF400940E94161D57FD07D00E94DC
:103A1000311D07FC03D04EF40C94161D50954095B3
:103A2000309521953F4F4F4F5F4F0895909580956A
:103A3000709561957F4F8F4F9F4F08950E94531D42
:103A4000A59F900DB49F900DA49F800D911D1124F2
:103A50000895B7FF0C941E1D0E941E1D821B930B20
:103A60000895A1E21A2EAA1BBB1BFD010DC0AA1FBF
:103A7000BB1FEE1FFF1FA217B307E407F50720F0D7
:103A8000A21BB30BE40BF50B661F771F881F991F52
:103A90001A9469F760957095809590959B01AC019B
:103AA000BD01CF010895A29FB001B39FC001A39FA4
:103AB000700D811D1124911DB29F700D811D112467
:103AC000911D0895EE0FFF1F881F8BBF0790F69181
:103AD000E02D19942A193B094C095D096E097F09EB
:103AE000800B910B08952A153B054C055D056E056D
:103AF0007F058007910708955058BB27AA270E9489
:103B0000941D0C94C51C0E94B71C38F00E94BE1C6A
:103B100020F039F49F3F19F426F40C94B41C0EF4F1
:103B2000E095E7FB0C94AE1CE92F0E94D61C58F3DD
:103B3000BA17620773078407950720F079F4A6F592
:103B40000C94F81C0EF4E0950B2EBA2FA02D0B014F
:103B5000B90190010C01CA01A0011124FF27591BD2
:103B600099F0593F50F4503E68F11A16F040A22FD8
:103B7000232F342F4427585FF3CF46953795279549
:103B8000A795F0405395C9F77EF41F16BA0B620B48
:103B9000730B840BBAF09150A1F0FF0FBB1F661F8F
:103BA000771F881FC2F70EC0BA0F621F731F841FD2
:103BB00048F4879577956795B795F7959E3F08F0F8
:103BC000B0CF9395880F08F09927EE0F97958795BA
:103BD00008950E94F91EE3950C94221F0E94021E74
:103BE0000C94C51C0E94BE1C58F00E94B71C40F0EB
:103BF00029F45F3F29F00C94AE1C51110C94F91C70
:103C00000C94B41C0E94D61C68F39923B1F355237D
:103C100091F3951B550BBB27AA27621773078407DF
:103C200038F09F5F5F4F220F331F441FAA1FA9F375
:103C300035D00E2E3AF0E0E832D091505040E69563
:103C4000001CCAF72BD0FE2F29D0660F771F881FC4
:103C5000BB1F261737074807AB07B0E809F0BB0BB7
:103C6000802DBF01FF2793585F4F3AF09E3F5105CB
:103C700078F00C94AE1C0C94F91C5F3FE4F3983E72
:103C8000D4F3869577956795B795F7959F5FC9F7B4
:103C9000880F911D9695879597F90895E1E0660F35
:103CA000771F881FBB1F621773078407BA0720F0AE
:103CB000621B730B840BBA0BEE1F88F7E095089517
:103CC00029F416F00C94AE1C0C94F81C0C94B41C43
:103CD0000E94DE1CA8F39638A0F707F80F92E8942C
:103CE0002BE33AEA48EB5FE70E94571C0F920F92D2
:103CF0000F924DB75EB70F920E947D1FE4EEF0E089
:103D00000E94D01E4F915F91EF91FF91E595EE1FBC
:103D1000FF1F49F0FE57E0684427EE0F441FFA9555
:103D2000E1F74195550B0E94471F0F9007FE0C9439
:103D30003B1F08950E94A11E6894B1110C94F91CB8
:103D400008950E94DE1C88F09F5798F0B92F99279C
:103D5000B751B0F0E1F0660F771F881F991F1AF076
:103D6000BA95C9F714C0B13091F00E94F81CB1E0C7
:103D700008950C94F81C672F782F8827B85F39F0C6
:103D8000B93FCCF3869577956795B395D9F73EF40F
:103D900090958095709561957F4F8F4F9F4F0895B7
:103DA000DF93CF931F930F93FF92EF92DF927B01EC
:103DB0008C01689406C0DA2EEF010E94541CFE01AB
:103DC000E894A5912591359145915591A6F3EF0180
:103DD0000E94941DFE019701A801DA9469F7DF9013
:103DE000EF90FF900F911F91CF91DF9108950C9468
:103DF000B41C0E94DE1CD8F3E894E0E0BB279F5778
:103E0000F0F02AED3FE049EC06C0EE0FBB0F661F55
:103E1000771F881F28F0B23A62077307840728F0DB
:103E2000B25A620B730B840BE3959A9572F7803844
:103E300030F49A95BB0F661F771F881FD2F7904802
:103E40000C94BB1FEF93E0FF07C0A2EA2AED3FE00E
:103E500049EC5FEB0E94941D0E94C51C0F900394D7
:103E600001FC9058ECE0F1E00C94C71F0E941D1C6F
:103E700008F48FEF08959B01AC0160E070E080E8EA
:103E80009FE30C94EE1D0C94AE1C0C94B91F0E9481
:103E9000DE1CD8F39923C9F3940F511DA3F391505D
:103EA000504094F059F0882332F0660F771F881F36
:103EB00091505040C1F79E3F51052CF7880F911D3E
:103EC0009695879597F908955F3FACF0983E9CF0E2
:103ED000BB27869577956795B79508F4B16093955C
:103EE000C1F7BB0F58F711F460FFE8CF6F5F7F4F4A
:103EF0008F4F9F4FE3CF0C94F91CFA01DC01AA0FFE
:103F0000BB1F9B01AC01BF5728F42227332744274E
:103F1000507820C0B75190F4AB2F002446953795C8
:103F20002795011CA395D2F3002071F0220F331FB7
:103F3000441FB395DAF30ED00C947C1D61307105EB
:103F4000A0E88A07B94630F49B01AC0166277727C1
:103F500088279078309621F02083318342835383E1
:103F600008959F930E94F91E0F9007FCEE5F0C943A
:103F7000221F9F3F31F0915020F4879577956795E8
:103F8000B795880F911D9695879597F908959F93FA
:103F90008F937F936F93FF93EF939B01AC010E94EC
:103FA000411CEF91FF910E94D01E2F913F914F91A4
:103FB0005F910C94411C0F931F93CF93DF9382303A
:103FC000910510F482E090E0E091B20DF091B30D14
:103FD00030E020E0B0E0A0E0309799F42115310501
:103FE00009F44AC0281B390B24303105D8F58A81E1
:103FF0009B816115710589F1FB0193838283FE0129
:1040000011C0408151810281138148175907E0F0A6
:104010004817590799F4109761F012960C9312976C
:1040200013961C933296CF01DF91CF911F910F9180
:1040300008950093B20D1093B30DF4CF21153105FF
:1040400051F04217530738F0A901DB019A01BD0175
:10405000DF01F801C1CFEF01F9CF9093B30D809349
:10406000B20DCDCFFE01E20FF31F81939193225049
:10407000310939832883D7CF2091B00D3091B10D0C
:10408000232B41F420910602309107023093B10DA9
:104090002093B00D209104023091050221153105C5
:1040A00041F42DB73EB74091080250910902241BFC
:1040B000350BE091B00DF091B10DE217F307A0F4CC
:1040C0002E1B3F0B2817390778F0AC014E5F5F4F6E
:1040D0002417350748F04E0F5F1F5093B10D4093E2
:1040E000B00D819391939FCFF0E0E0E09CCFCF9310
:1040F000DF930097E9F0FC01329713821282A091BE
:10410000B20DB091B30DED0130E020E01097A1F4B5
:1041100020813181820F931F2091B00D3091B10D1C
:104120002817390709F061C0F093B10DE093B00D85
:10413000DF91CF910895EA01CE17DF07E8F54A81B4
:104140005B819E0141155105B1F7E901FB83EA83CB
:1041500049915991C40FD51FEC17FD0761F4808177
:1041600091810296840F951FE9019983888382814A
:1041700093819B838A83F0E0E0E012968D919C917D
:1041800013970097B9F52D913C911197CD010296A7
:10419000820F931F2091B00D3091B10D2817390770
:1041A00039F6309751F51092B30D1092B20DB093CD
:1041B000B10DA093B00DBCCFD383C2834081518198
:1041C000840F951FC817D90761F44E5F5F4F888130
:1041D0009981480F591F518340838A819B81938322
:1041E00082832115310509F0B0CFF093B30DE09330
:1041F000B20D9ECFFD01DC01C0CF13821282D7CF5A
:104200004F925F926F927F928F929F92AF92BF92E6
:10421000CF92DF92EF92FF920F931F93CF93DF9392
:104220008C01009799F4CB01DF91CF911F910F91F1
:10423000FF90EF90DF90CF90BF90AF909F908F90C6
:104240007F906F905F904F900C94DB1FFC01E60F06
:10425000F71F9C0122503109E217F30708F4AEC0A2
:10426000D901CD91DC911197C617D70720F1C53040
:10427000D10578F0CE0104978617970750F0C61B3A
:10428000D70B2297C193D1936D937C93CF010E945A
:104290007720C801DF91CF911F910F91FF90EF9090
:1042A000DF90CF90BF90AF909F908F907F906F9056
:1042B0005F904F9008955B01AC1ABD0A4C018C0EC3
:1042C0009D1EA091B20DB091B30D512C412CF12C3B
:1042D000E12C109731F58091B00D9091B10D8815BA
:1042E000990509F05CC04616570608F058C0809141
:1042F000040290910502009741F48DB79EB740915A
:10430000080250910902841B950BE817F90708F081
:1043100055C0F093B10DE093B00DF9017183608346
:10432000B8CF8D919C91119712966C90129713961D
:104330007C901397A815B90559F56C0142E0C40E9D
:10434000D11CCA14DB0420F1AC014A195B09DA0163
:104350001296159780F06282738251834083D9014F
:104360006D937C93E114F10471F0D7011396FC93E3
:10437000EE9312978ECF22968C0F9D1FF901918399
:104380008083F301EFCFF093B30DE093B20D81CFB3
:104390004816590608F42C017D01D3019ACFCB01B0
:1043A0000E94DB1F7C01009749F0AE01B8010E941A
:1043B000E121C8010E94772087016BCF10E000E067
:1043C00068CFFB01DC0102C001900D9241505040CA
:1043D000D8F70895FB01DC0101900D920020E1F770
:1043E000089511E0CEECD1E000E006C0802FFE0180
:1043F0000E94621D2196011DCF3CD10780E0080775
:06440000A9F7F894FFCFBC
:10440600010000000000B40D80000705060403014A
:104416000200AA0A5505AA0A5505AA0A5505AA0AB6
:104426005505AA0A5505AA0A5505AA0A5505AA0A4E
:104436005505AA0A5505AA0A5505AA0A5505AA0A3E
:10444600550504024A00A404400A0204250052024B
:10445600200504024A00A404400A02042500520270
:10446600200504024A00A404400A02042500520260
:104476002005A4045202A4045202A4045202A40475
:104486005202A4045202A4045202A4045202A40436
:104496005202A4045202A4045202A4045202A40426
:1044A6005202800048082C0C960643032101100096
:1044B6000000800048082C0C9606430321011000DA
:1044C6000000800048082C0C9606430321011000CA
:1044D6000000C00F3F00C00F3F00C00F3F00C00FDD
:1044E6003F00C00F3F00C00F3F00C00F3F00C00F8E
:1044F6003F00C00F3F00C00F3F00C00F3F00C00F7E
:104506003F0060006004400600071003110113001D
:1045160007000E008C0088088008600060044006D2
:10452600000710031101130007000E008C00880815
:104536008008800888088C000E000700130011010F
:1045460010030007400660046000800888088C009D
:104556000E00070013001101100300074006600457
:1045660060006000E000C8008C000E000700130029
:10457600110110030007000E000C6000E000C800E7
:104586008C000E0007001300110110030007000E37
:10459600000C000C000E00071003110113000700A9
:1045A6000E008C00C800E0006000000C000E000742
:1045B60010031101130007000E008C00C800E00074
:1045C6006000000EC0013800070007003800C00177
:1045D600000EC00FF80FFF0FFF013F00070000009D
:1045E600FF0F0000FF0F00000000000000000000A9
:1045F6000000F0000F0FF0000F0FF000F00FFF0F9C
:10460600FF000F0000000F00FF00FF0FF00F000F6C
:104616000000000FF00FFF0F0000FF0F000000006A
:104626000000A404A2022101A202A4044808A404D2
:10463600A2022101A202A4044808A404A2022101A4
:10464600A202A4044808A404A2022101A202A4040E
:1046560048082D302B202020202020202000003646
:10466600000000000030060000004080003F065BAE
:104676004F666D7D077F6F00000000000000777CAD
:10468600395E79716F76060E703815373F7367316C
:104696006D783E1C2A466E5B30060008000000005E
:1046A60000B80522054F05050680055E0572050062
:1046B600000000FA07CD072908A307C607B307A419
:1046C600070D0A00504C414E4554200053465820D1
:1046D600444154415F310053465820444154415FA0
:1046E600320053465820444154415F53454E4400DE
:1046F600534658204C41554E43485F5354415254FB
:10470600004A4F59535449434B2058005A005346C8
:10471600582052414E444F4D5F484953544F5249D9
:1047260043414C005346582053544952005346586F
:104736002052414E444F4D5F534349464900415331
:104746005445524F49442043524541544500415334
:104756005445524F49442053494E474C455F4445C2
:104766005354524F590041535445524F49442053D4
:10477600555045525F44455354524F59005346587D
:1047860020544F4E455F4C4F570053465820544FC8
:104796004E455F4D4944444C450053465820544FBE
:0847A6004E455F4849474800F9
:00000001FF
